:100000000C9456010C9487010C9487010C94870181
:100010000C9487010C9487010C9487010C94870140
:100020000C9487010C9487010C9487010C94870130
:100030000C9487010C9487010C9487010C94870120
:100040000C9487010C942A080C9487010C94870166
:100050000C9487010C9487010C9487010C94F6068C
:100060000C9487010C946A070C9440070C94870148
:100070000C9487010C9487010C9487010C948701E0
:100080000C94FC070C9487010C9487010C94870155
:100090000C9487010C9487010C9487010C948701C0
:1000A0000C9487010C9487010C94CE070C94870163
:1000B0000C9487010C9487010C9487010C94A00781
:1000C0000C9487010C9487010C9487010C94870190
:1000D0000C9487010C9487010C9487010C94870180
:1000E0000C948701B801BB01AA01AE01B201F20173
:1000F000BF01C301C901CD01D101D701DB01DF017E
:10010000F201E501E901ED01000A030AE70AEC0A40
:10011000F30AD70BDA0BDD0BE40BE70B0C94D701DA
:100120000C94F30A0C94B2020C94DF010C94BB0102
:100130000C94DB010C94B8010C94DD0B0C94D70BE0
:100140000C94E40B0C94A4020C94E9020C94BF01EF
:100150000C94CD010C94D1010C94AE010C94000AC6
:100160000C9458080C94C3010C9490020C94DA0B74
:100170000C94030A0C94B2010C94E9010C94AA01AA
:100180000C94C9010C94E70A0C94ED010C94F20153
:100190000C94E5010C94E70B0C9435030C94650268
:1001A0000C94EC0A00002100240027002A002D00F6
:1001B0003000330001010000040107010A010000C2
:1001C0002200250028002B002E00310034000201FF
:1001D0000000050108010B010505050507050808D4
:1001E0000808020202020A0A0808040404040101C1
:1001F00001010101010103030303030303030407D6
:1002000007070C0C0C0C0C0C0C0C0202020206066C
:100210000606060606060B0B0B0B0B0B0B0B01025F
:100220001020200808102040102040800201020108
:1002300008040201010204081020408080402010C0
:100240000804020180040201804020100804020119
:100250000804020101020408102040800102040881
:100260001020408000000A0B02090C0D0E08070345
:100270000401000000000000000000000000000079
:10028000000000000000000000000000000000006E
:10029000121110000000000000000000000000002B
:1002A00000000000000000000000580811241FBEDC
:1002B000CFEFD1E2DEBFCDBF00E00CBF12E0A0E087
:1002C000B2E0E8EDF8E100E00BBF02C007900D924C
:1002D000A031B107D9F723E0A0E1B2E001C01D923F
:1002E000A138B207E1F711E0C6E5D1E000E006C0B1
:1002F00021970109802FFE010E945D0CC535D107B1
:1003000080E00807A9F70E94CC080C946A0C0C94B2
:100310000000362F90E0FC01EC59FD4F4491FC01A8
:10032000E25EFD4F2491FC01E852FE4F9491992327
:1003300009F46BC0442309F455C050E0FA01319729
:10034000E231F10508F04EC08827EE58FF4F8F4F7D
:100350000C945D0C809180008F7707C080918000A5
:100360008F7D03C080918000877F809380003AC09A
:1003700084B58F7702C084B58F7D84BD33C08091F2
:10038000B0008F7703C08091B0008F7D8093B00064
:1003900029C0809190008F7707C0809190008F7D59
:1003A00003C080919000877F809390001BC0809154
:1003B000A0008F7707C08091A0008F7D03C080913F
:1003C000A000877F8093A0000DC0809120018F77CF
:1003D00007C0809120018F7D03C080912001877F1D
:1003E00080932001E92FF0E0EE0FFF1FE254FE4F53
:1003F000A591B4918FB7F894EC91311103C0209579
:100400002E2301C02E2B2C938FBF08953FB7F89455
:100410008091AA029091AB02A091AC02B091AD0282
:1004200026B5A89B05C02F3F19F00196A11DB11D4F
:100430003FBFBA2FA92F982F8827820F911DA11D8A
:10044000B11DBC01CD0142E0660F771F881F991FC7
:100450004A95D1F708958F929F92AF92BF92CF9213
:10046000DF92EF92FF926B017C010E9406024B012A
:100470005C01C114D104E104F104F1F00E94060210
:10048000DC01CB0188199909AA09BB09883E934070
:10049000A105B10570F321E0C21AD108E108F10805
:1004A00088EE880E83E0981EA11CB11CC114D104F3
:1004B000E104F10419F7DDCFFF90EF90DF90CF90CA
:1004C000BF90AF909F908F900895CF92DF92EF9260
:1004D000FF920F931F93CF93DF936C017A018B01EF
:1004E000C0E0D0E0CE15DF0589F0D8016D918D0117
:1004F000D601ED91FC910190F081E02DC601199596
:10050000892B11F47E0102C02196ECCFC701DF9147
:10051000CF911F910F91FF90EF90DF90CF900895B2
:10052000FC01918D828D981761F0828DDF01A80FFB
:10053000B11D5D968C91928D9F5F9F73928F90E01D
:1005400008958FEF9FEF0895FC01918D828D98178C
:1005500031F0828DE80FF11D858D90E008958FEFC9
:100560009FEF0895FC01918D228D892F90E0805C92
:100570009F4F821B91098F73992708958EEA92E00D
:100580000E94B20221E0892B09F420E0822F089515
:10059000FC01848DDF01A80FB11DA35ABF4F2C9120
:1005A000848D90E001968F739927848FA689B789EF
:1005B0002C93A089B1898C9180648C93938D848DC8
:1005C000981306C00288F389E02D80818F7D808397
:1005D0000895EF92FF920F931F93CF93DF93EC0157
:1005E00081E0888F9B8D8C8D981305C0E889F989EF
:1005F000808185FD24C0F62E0B8D10E00F5F1F4F0C
:100600000F731127E02E8C8DE8120CC00FB607FC7B
:10061000FACFE889F989808185FFF5CFCE010E9464
:10062000C802F1CF8B8DFE01E80FF11DE35AFF4F99
:10063000F0820B8FEA89FB898081806207C0EE8996
:10064000FF896083E889F98980818064808381E003
:1006500090E0DF91CF911F910F91FF90EF9008955F
:10066000682F8EEA92E00C94E902CF93DF93EC01BD
:10067000888D8823C9F0EA89FB89808185FD05C0C2
:10068000A889B9898C9186FD0FC00FB607FCF5CFFC
:10069000808185FFF2CFA889B9898C9185FFEDCF44
:1006A000CE010E94C802E7CFDF91CF91089580E08C
:1006B00090E0892B21F00E94BE02811125C080E0CC
:1006C00090E0892B41F080E090E0892B21F00E949E
:1006D000000081111CC080E090E0892B41F080E097
:1006E00090E0892B21F00E940000811113C080E06E
:1006F00090E0892BA1F080E090E0892B81F00E94AE
:10070000000081110AC008950E940000D8CF0E9405
:100710000000E1CF0E940000EACF0C940000089591
:10072000CF92DF92EF92FF92CF93DF93EC01603292
:1007300082E078070CF03DC077FD06C0653B71058F
:100740002CF064EB70E002C060E070E0898128E882
:1007500030E06901C81AD10887FDD394CC0CDD1CA8
:10076000CC0CDD1C0D2C000CEE08FF088A8128E55E
:1007700032E0281B310987FD3395220F331F220FEA
:10078000331FC901330FAA0BBB0B9C01AD012C1900
:100790003D094E095F09DB010E94180C24EB30E093
:1007A00040E050E00E94EE0BC20ED31EE41EF51E88
:1007B000B6018881803380F5998148E850E0491B73
:1007C000510997FD5395440F551F440F551F64174A
:1007D000750784F09A8128E532E0291B310997FDDD
:1007E0003395220F331F220F331FAB012617370714
:1007F0000CF4A90142505109440F551F2FB7F8942A
:1008000090E0FC01EE0FFF1F8E0F9F1FFC01EB5EBF
:10081000FD4F528341832FBFDF91CF91FF90EF9027
:10082000DF90CF900895CF93DF93DC018C918033DC
:1008300008F06DC09B013327F901E25EFD4F849102
:10084000F901E852FE4F2491222399F030E0220F63
:10085000331FF901EC55FE4FC591D491F901E254D3
:10086000FE4F259134919FB7F894E881E82BE883F7
:100870009FBF8C91E82FF0E09F01220F331FE20F02
:10088000F31FEB5EFD4F6F739081907C692B60834B
:1008900011961C92119712961C9212976CE00E946E
:1008A000510C9CE0899FB001112440E050E09A0176
:1008B000260F371FF901EE0FFF1F2E0F3F1FF90103
:1008C000EB5EFD4F908196FD16C04F5F5F4F4C3041
:1008D000510569F78130F9F41092800082E080932D
:1008E00081001092850010928400B19A80916F006F
:1008F000826080936F00EC91F0E0CF01880F991F28
:10090000E80FF91FEB5EFD4F8081806480838C913E
:10091000DF91CF910895823061F41092900080931E
:100920009100109295001092940088BB8093710002
:10093000E2CF833069F41092A00082E08093A1009E
:100940001092A5001092A40089BB80937200D3CFAF
:100950008111D1CF1092200182E080932101109269
:100960002501109224018ABB80937300C4CFFC013F
:10097000909114029033A0F481E0890F80931402C7
:100980009083892F90E0FC01EE0FFF1F8E0F9F1FB9
:10099000FC01EB5EFD4F88EB9BE092838183089521
:1009A0008FEF80830895CF92DF92EF92FF920F93A3
:1009B0001F93CF93DF936C018B017A01EC01C05F31
:1009C000DD4F888187FF04C0FB011182108224C0A3
:1009D0008CE08C9D90018D9D300D11248881A901A2
:1009E000480F511D87FD5A958091140290E04817D9
:1009F000590794F48881A901480F511D87FD5A9524
:100A0000CA01FA01EE0FFF1F8E0F9F1FFC01EB5E64
:100A1000FD4F808186FD19C088818F5F88838CE0BF
:100A20008C9D90018D9D300D11248881A901480F66
:100A3000511D87FD5A958091140290E0481759077F
:100A4000BCF488818C3044F113C08881280F311D9B
:100A500087FD3A95F901EE0FFF1F2E0F3F1FF90199
:100A6000EB5EFD4F808160E08F730E948901D4CFDF
:100A7000F80180819181049680349C4918F480E4C7
:100A80009CE904C0F801808191810496F70191836B
:100A900080838FEF888345C0F80140815181888130
:100AA000B901680F711D87FD7A95CB01FB01EE0F2F
:100AB000FF1F8E0F9F1FFC01EB5EFD4F8181928116
:100AC000840F951FF701918380838881A901480FC6
:100AD000511D87FD5A95CA01FA01EE0FFF1F8E0FB7
:100AE0009F1FFC01EB5EFD4F808186FF1AC088814D
:100AF000280F311D87FD3A95F901EE0FFF1F2E0FCC
:100B00003F1FF901EB5EFD4F808161E08F73DF9144
:100B1000CF911F910F91FF90EF90DF90CF900C94A9
:100B20008901DF91CF911F910F91FF90EF90DF909E
:100B3000CF900895CF93DF93C0E0D0E06EE170E0F6
:100B4000CE0188589C4F0E94900366E970E0CE0168
:100B500081599C4F0E9490036DE270E0CE018A594A
:100B60009C4F0E94900367E870E0CE01835A9C4F2F
:100B70000E9490036AE570E0CE018C5A9C4F0E945F
:100B800090036AE570E0CE01855B9C4F0E94900364
:100B90002396C930D10591F6DF91CF910895AF9298
:100BA000BF92CF92DF92EF92FF920F931F93CF935A
:100BB000DF93EC010E949A05EE24FF24EC1AFD0A53
:100BC0003DE2C32ED12C00E010E0B60186E693E0B2
:100BD0000E949003B6018CE693E00E949003B80156
:100BE00069577F4F80E693E00E94900360E170E0D8
:100BF00080E090E00E942B020C0F1D1FCE0CDF1C2A
:100C00000E31110514F300E010E068018EE1C80E0A
:100C1000D11CB60188E793E00E949003B6018EE7ED
:100C200093E00E949003B8016A567F4F82E793E0F9
:100C30000E9490036CE070E080E090E00E942B0244
:100C40000C0F1D1F0431110504F325EAC22ED12C0F
:100C500000E010E058018FE0A80EB11CB50186E657
:100C600093E00E949003B5018CE693E00E9490030C
:100C7000B60180E693E00E94900360E170E080E0BE
:100C800090E00E942B020C0F1D1FCE0CDF1C0E31BA
:100C9000110504F39DE2C92ED12C00E010E05801AB
:100CA00087E8A80EB11CB5018DE593E00E94900382
:100CB000B50183E693E00E949003B60189E693E0D4
:100CC0000E94900360E170E080E090E00E942B02BF
:100CD0000C0F1D1FCE0CDF1C0E31110504F300E0BC
:100CE00010E0680186E9C80ED11CB6018FE693E0DA
:100CF0000E949003B60185E793E00E949003B8013B
:100D0000625E7F4F8BE793E00E9490036CE070E09F
:100D100080E090E00E942B020C0F1D1F0431110592
:100D200004F385EAC82ED12C00E010E0B6018DE571
:100D300093E00E949003B60183E693E00E94900343
:100D4000B801615F7F4F89E693E00E94900360E104
:100D500070E080E090E00E942B020C0F1D1FCE0C73
:100D6000DF1C0E31110514F302E310E0C12CD12C6D
:100D7000B80188E793E00E949003B8018BE793E005
:100D80000E949003B8018EE793E00E9490035801FF
:100D900088E7A80EB11CB5018FE693E00E9490038E
:100DA000B50182E793E00E949003B50185E793E0E7
:100DB0000E9490036CE070E080E090E00E942B02C3
:100DC000CC0EDD1E0E0D1F1D84E1C816D10484F269
:100DD000DF91CF911F910F91FF90EF90DF90CF9017
:100DE000BF90AF900C949A050E94650C1F920F92D1
:100DF0000FB60F9211242F933F938F939F93AF932E
:100E0000BF938091A6029091A702A091A802B091F1
:100E1000A9023091A50223E0230F2D3720F401967B
:100E2000A11DB11D05C026E8230F0296A11DB11D0D
:100E30002093A5028093A6029093A702A093A802F4
:100E4000B093A9028091AA029091AB02A091AC024A
:100E5000B091AD020196A11DB11D8093AA0290939D
:100E6000AB02A093AC02B093AD02BF91AF919F9142
:100E70008F913F912F910F900FBE0F901F9018955B
:100E80001F920F920FB60F9211240BB60F922F9351
:100E90003F934F935F936F937F938F939F93AF9302
:100EA000BF93EF93FF938EEA92E00E94C802FF91F6
:100EB000EF91BF91AF919F918F917F916F915F91D2
:100EC0004F913F912F910F900BBE0F900FBE0F903F
:100ED0001F9018951F920F920FB60F9211240BB608
:100EE0000F922F938F939F93EF93FF93E091BE0206
:100EF000F091BF028081E091C402F091C50282FDB1
:100F000012C090818091C7028F5F8F732091C802B9
:100F1000821751F0E091C702F0E0E255FD4F958F46
:100F20008093C70201C08081FF91EF919F918F91C3
:100F30002F910F900BBE0F900FBE0F901F90189522
:100F40001F920F920FB60F9211240BB60F922F9390
:100F50003F934F935F936F937F938F939F93AF9341
:100F6000BF93EF93FF9348E251E064E271E080E0C9
:100F700090E00E94D304FF91EF91BF91AF919F91B8
:100F80008F917F916F915F914F913F912F910F9032
:100F90000BBE0F900FBE0F901F9018951F920F92CF
:100FA0000FB60F9211240BB60F922F933F934F93CE
:100FB0005F936F937F938F939F93AF93BF93EF93C1
:100FC000FF9348EA50E064EA70E083E090E00E941A
:100FD000D304FF91EF91BF91AF919F918F917F913A
:100FE0006F915F914F913F912F910F900BBE0F909A
:100FF0000FBE0F901F9018951F920F920FB60F9271
:1010000011240BB60F922F933F934F935F936F93DF
:101010007F938F939F93AF93BF93EF93FF9348E991
:1010200050E064E970E082E090E00E94D304FF9118
:10103000EF91BF91AF919F918F917F916F915F9150
:101040004F913F912F910F900BBE0F900FBE0F90BD
:101050001F9018951F920F920FB60F9211240BB686
:101060000F922F933F934F935F936F937F938F9341
:101070009F93AF93BF93EF93FF9348E850E064E8EA
:1010800070E081E090E00E94D304FF91EF91BF9166
:10109000AF919F918F917F916F915F914F913F9110
:1010A0002F910F900BBE0F900FBE0F901F901895B1
:1010B000EEEAF2E01382128288EE93E0A0E0B0E064
:1010C00084839583A683B78384E092E091838083B1
:1010D00085EC90E09587848784EC90E097878687FD
:1010E00080EC90E0918B808B81EC90E0938B828BF5
:1010F00082EC90E0958B848B86EC90E0978B868BCE
:10110000118E128E138E148E88E793E00E94B7041E
:101110008BE793E00E94B7048EE793E00E94B70448
:101120008FE693E00E94B70482E793E00E94B70441
:1011300085E793E00E94B70486E693E00E94B70437
:1011400089E693E00E94B7048CE693E00E94B7041E
:101150008DE593E00E94B70480E693E00E94B70417
:1011600083E693E00E94B70484E593E00E94B7040D
:1011700087E593E00E94B7048AE593E00E94B704F4
:101180008BE493E00E94B7048EE493E00E94B704DE
:1011900081E593E00C94B704789484B5826084BDB3
:1011A00084B5816084BD85B5826085BD85B581606B
:1011B00085BD80916E00816080936E0010928100E9
:1011C00080918100826080938100809181008160A4
:1011D0008093810080918000816080938000809165
:1011E000B10084608093B1008091B00081608093F1
:1011F000B000809191008260809391008091910075
:101200008160809391008091900081608093900034
:101210008091A10082608093A1008091A1008160F3
:101220008093A1008091A00081608093A0008091B4
:10123000210182608093210180912101816080934E
:1012400021018091200181608093200180917A00AA
:10125000846080937A0080917A00826080937A0023
:1012600080917A00816080937A0080917A00806812
:1012700080937A001092C100E091BE02F091BF020B
:1012800082E08083E091BA02F091BB021082E0918B
:10129000BC02F091BD028FEC80831092C602E091F7
:1012A000C202F091C30286E08083E091C002F09117
:1012B000C102808180618083E091C002F091C1020F
:1012C000808188608083E091C002F091C1028081BA
:1012D00080688083E091C002F091C10280818F7D9F
:1012E00080836DE070E088E793E00E9413046AE079
:1012F00070E08BE793E00E94130467E070E08EE7F4
:1013000093E00E94130464E070E08FE693E00E9493
:1013100013046CE270E082E793E00E94130461E33F
:1013200070E085E793E00E9413046CE070E086E6CD
:1013300093E00E94130468E070E089E693E00E9465
:10134000130466E070E08CE693E00E94130462E010
:1013500070E08DE593E00E9413046EE270E080E699
:1013600093E00E9413046FE270E083E693E00E9432
:1013700013046BE070E084E593E00E94130469E0DD
:1013800070E087E593E00E94130465E070E08AE571
:1013900093E00E94130463E070E08BE493E00E940A
:1013A000130460E370E08EE493E00E9413046DE2A6
:1013B00070E081E593E00E9413040E949A0524EBFB
:1013C000E22EF12C0E949A058EEA92E00E94B2026F
:1013D00018161906CCF78EEA92E00E949002082EA9
:1013E000000C990BAA0BBB0BFC01F097EA30F1053E
:1013F00008F0F1C18827EC57FF4F8F4F0C945D0C1C
:1014000080E390E0E6C10E949A050DE210E0B80189
:1014100086E693E00E949003B8018CE693E00E9478
:101420009003B701601B710B80E693E00E9490036C
:1014300060E170E080E090E00E942B020150110911
:101440000F30110521F7CAE5D0E0BE0184E593E035
:101450000E949003BE018AE593E00E949003B701C9
:101460006C1B7D0B8EE493E00E94900360E170E0C2
:1014700080E090E00E942B022197CC33D10529F720
:10148000B80186E693E00E949003B8018CE693E0F1
:101490000E949003B701601B710B80E693E00E94ED
:1014A000900360E170E080E090E00E942B020F5F0B
:1014B0001F4F0D32110521F707E810E0B8018DE547
:1014C00093E00E949003B80183E693E00E949003AA
:1014D000B701601B710B89E693E00E94900360E105
:1014E00070E080E090E00E942B020F5F1F4F053AF2
:1014F000110521F79AE5C92ED12CB6018BE493E0B2
:101500000E949003B60181E593E00E949003B70129
:101510006C197D0987E593E00E94900360E170E01B
:1015200080E090E00E942B028FEFC81AD80A88E76B
:10153000C816D10411F7B8018DE593E00E9490031D
:10154000B80183E693E00E949003B701601B710B22
:1015500089E693E00E94900360E170E080E090E013
:101560000E942B02015011090738110521F7BE0115
:1015700084E593E00E949003BE0187E593E00E941A
:101580009003BE018AE593E00E94900387010C1B43
:101590001D0BB8018BE493E00E949003B8018EE428
:1015A00093E00E949003B80181E593E00E949003CC
:1015B00060E170E080E090E00E942B022196CA3545
:1015C000D105A9F60E949A0581E390E002C10E942C
:1015D0009A0582E390E0FDC081E090E00E94CF0593
:1015E00083E390E0F6C00E949A050DE210E0B80196
:1015F00086E693E00E949003B8018CE693E00E9497
:101600009003B701601B710B80E693E00E9490038A
:1016100060E170E080E090E00E942B02015011092F
:101620000F30110521F7CEE1D0E0BE0188E793E04D
:101630000E949003BE018EE793E00E949003BE01DA
:1016400068587F4F82E793E00E9490036CE070E05F
:1016500080E090E00E942B022197CA30D10529F743
:10166000B80186E693E00E949003B8018CE693E00F
:101670000E949003B701601B710B80E693E00E940B
:10168000900360E170E080E090E00E942B020F5F29
:101690001F4F0D32110521F707E810E0B8018DE565
:1016A00093E00E949003B80183E693E00E949003C8
:1016B000B701601B710B89E693E00E94900360E123
:1016C00070E080E090E00E942B020F5F1F4F053A10
:1016D000110521F786E9C82ED12CB6018FE693E0DB
:1016E0000E949003B60185E793E00E949003B60143
:1016F000685771098BE793E00E9490036CE070E0FB
:1017000080E090E00E942B0281E0C81AD10882E8B4
:10171000C816D10411F7B8018DE593E00E9490033B
:10172000B80183E693E00E949003B701601B710B40
:1017300089E693E00E94900360E170E080E090E031
:101740000E942B02015011090738110521F7BE0133
:1017500088E793E00E949003BE018BE793E00E942C
:101760009003BE018EE793E00E9490038E0108581B
:101770001F4FB8018FE693E00E949003B80182E703
:1017800093E00E949003B80185E793E00E949003E4
:101790006CE070E080E090E00E942B022196CE3158
:1017A000D105A9F60E949A0584E390E012C085E372
:1017B00090E00FC086E390E00CC081E090E00E94D2
:1017C000CF0587E390E005C088E390E002C089E39D
:1017D00090E00E9430030E945703F4CD052E97FB42
:1017E0001EF400940E94050C57FD07D00E94200CA7
:1017F00007FC03D04EF40C94050C509540953095A1
:1018000021953F4F4F4F5F4F08959095809570956C
:1018100061957F4F8F4F9F4F08950E94420CA59F67
:10182000900DB49F900DA49F800D911D11240895DB
:10183000B7FF0C940D0C0E940D0C821B930B0895A6
:10184000A1E21A2EAA1BBB1BFD010DC0AA1FBB1FC4
:10185000EE1FFF1FA217B307E407F50720F0A21B36
:10186000B30BE40BF50B661F771F881F991F1A94A3
:1018700069F760957095809590959B01AC01BD01CD
:10188000CF010895A29FB001B39FC001A39F700D27
:10189000811D1124911DB29F700D811D1124911D78
:1018A0000895991B79E004C0991F961708F0961BBC
:1018B000881F7A95C9F780950895EE0FFF1F881F3E
:1018C0008BBF0790F691E02D199481E090E0F89499
:0818D0000C946A0CF894FFCFA0
:1018D80000000000E9026502B2029002A40235038A
:00000001FF
